:1000000000000420B1430000E9430000E11B0000B0
:10001000ED430000F11B0000F91B00000000000090
:10002000000000000000000000000000AD2B0000F8
:10003000F543000000000000452C0000552C000096
:1000400029690000FB430000FB430000FB43000064
:10005000FB430000FB430000FB430000FB430000A8
:10006000FB430000FB430000FB430000FB43000098
:10007000FB430000BD6A0000FB430000FB4300009F
:10008000FB430000FB430000FB430000FB43000078
:10009000FB430000FB430000FB430000FB43000068
:1000A000FB430000FB430000FB430000FB43000058
:1000B000FB430000FB4300000000000000000000C4
:1000C000FB430000FB430000FB430000FB43000038
:1000D000FB430000FB430000FB430000FB43000028
:1000E000FB430000FB430000FB4300000000000056
:1000F00000000000FB43000000000000FB43000084
:1001000010B5054C237833B9044B13B10448AFF351
:1001100000800123237010BDA80D00200000000006
:1001200024F7000008B5034B1BB103490348AFF3A4
:10013000008008BD00000000AC0D002024F7000086
:10014000154B002B08BF134B9D46A3F5803A0021A9
:100150008B460F461348144A121A09F0F7FD0F4B4D
:10016000002B00D098470E4B002B00D09847002062
:10017000002104000D000D48002802D00C4802F0B8
:1001800013FA09F06DF92000290002F0A1FB02F03A
:1001900008FA00BF00000800000004200000000072
:1001A0002D280000A80D0020A84E0020A925000041
:1001B00000000000036818470B6803607047704731
:1001C00038B5074D074C064800F08AFA38B1284682
:1001D00000F090F90146204600F09BF9F3E738BDA6
:1001E000C80D0020C80E002010B5034B0360044664
:1001F00000F0E4FB204610BDBCE5000008B5431C40
:1002000004D10F490F48202201F022FE012359B1E9
:100210001F2886BF0C4A00F01F004FF0A04203FACF
:1002200000F0C2F8080508BD1F2886BF064A00F086
:100230001F004FF0A04203FA00F0C2F80C05F2E7ED
:100240006CE40000A7E400000003005038B50D4C3A
:100250000D4D204604F01EFCB0FA80F1490994F9D6
:1002600000000A4CFFF7CAFF074800F039FA38B11E
:10027000284600F03FF9C1B2204600F04AF9F3E702
:1002800038BD00BFC40E0020C80E0020C80D0020DD
:10029000C36810B504460BB19B689847204610BD53
:1002A0007FB50E2228233048304D032100F0DAF9C3
:1002B0002F49304800F03FF92F4B012193F90000FE
:1002C000FFF79CFF2D492B4800F035F92C4B0121FD
:1002D00093F90000FFF792FF2A49264800F02BF916
:1002E000002001F007F82849224800F024F90122F3
:1002F0001E2101A801F052F84FF4FA7002F00CFA36
:1003000000219DF90400FFF779FF41F2883002F0E7
:1003100003FA01219DF90400FFF770FF41F28830D4
:1003200002F0FAF900241949124800F004F9184BB8
:1003300010480293224602A9CDE90344059500F036
:10034000F5FA02A8FFF7A4FF124B074802932246D2
:1003500002A9CDE90344059500F0E8FA02A8FFF7E9
:1003600097FF02F0D7F8FCE7C80D002040E5000039
:10037000BFE40000C80E0020C40F0020DAE4000033
:10038000C40D0020F3E400000EE5000027E50000A6
:100390004D020000C101000010B50446FFF724FF24
:1003A0002046FC2102F0A5F9204610BD70B5174C7F
:1003B000174E184D4FF4E13310220D21204600F066
:1003C0008FF82046144C3246294602F0E8F84FF4E4
:1003D000E13321222221204600F082F832462946CC
:1003E000204602F0DCF80D48002404701F2100F0C4
:1003F000E7FF0B481C21047000F0E2FF09480521CB
:100400000470BDE8704000F0DBBF00BFC80E0020E4
:1004100000020020E9010000C80D0020C40F0020E8
:10042000C40D0020C40E0020F8B50546064655F858
:10043000044B8CB90D4F386818B14FF0FF3103F001
:1004400007FB346824B9284602F0A4F92C4635602D
:10045000386808B103F014FBAC4204D004490548E5
:100460008B2201F0F5FC2046F8BD00BF883E00203D
:100470004CE500006EE50000C36810B52BB90549D6
:10048000054840F23B2201F0E3FCBDE810401B6848
:10049000184700BF91E50000AFE50000C36810B544
:1004A00004460BB19B689847204610BD043004F009
:1004B000F1BA884238B504460D460ED0FFF7E8FE83
:1004C00010220021204609F041FCEB681BB15B685B
:1004D000294620469847EB68E360204638BD7047C0
:1004E00010B5044600F028F9014B2360204610BDEA
:1004F000BCE5000038B5036804461B6898472046F1
:1005000000F010F9236805465B68204698472846A6
:1005100038BD37B50368019104461B6898470199B7
:10052000204600F002F9236805465B68204698479C
:10053000284603B030BD036837B51B680D46044636
:100540009847013D15F8011F19B12046FFF7E1FF5B
:10055000F8E72368019120465B68984701990846AF
:1005600003B030BD6FF01500704703681B69184772
:1005700003689B69184703689B6A1847704741687E
:1005800030B4034671B1D0E9032000F0010402B990
:1005900044B1451001EB60000CB149598A58996883
:1005A00030BC104730BC704770B500F14C0690F974
:1005B000DF2090F9DE100446304604F0CFFDD4E988
:1005C00039530DB9DA070ED55A1004EB6300DB0777
:1005D00048BFA35894F8EC1048BF5D5994F9ED203A
:1005E00094F9EE30A847D4F8D810304604F0C6FE8F
:1005F000224630460249BDE8704004F05FBF00BFAC
:10060000410A000070B5044600F14C05D0F8E01036
:10061000284601F059F9D4F8F020A2B1D4F8E4301A
:100620001BB9D4F8E830D8070DD5D4F8F810D4F8B1
:10063000F4304E1004EB6100C90744BFA159CB58F8
:1006400094F8EC109847D4F8D810284604F096FE99
:10065000224628460249BDE8704004F02FBF00BF83
:10066000410A00002DE9F0411F46D0F8E030044671
:100670000D4616462BB11749174840F2331201F0C8
:10068000E7FB164AC0E9392303681B68984784F8DA
:10069000EC5084F8ED6084F8EE70032D0BD8DFE8A1
:1006A00005F0150210154FF0FF333246012104F119
:1006B0004C0004F0DDFE236820465B68BDE8F04195
:1006C000184733464FF0FF320221F0E73B463246EF
:1006D0002946ECE7CCE50000F4E5000065060000E3
:1006E00038B50546044655F84C3B1B6898472846E4
:1006F00004F086FF236805465B6820469847284635
:1007000038BD38B50546044655F84C3B1B6898473C
:10071000284604F095FF236805465B682046984705
:10072000284638BD4C3004F0F7BE10B54C300C46AE
:1007300004F030FF204610BD2DE9FF479846394BA5
:100740000360394B43600025384BC3600446C0E961
:100750000555C0E907550F4616468560858429462C
:1007600000611022283009F0F1FA2946102204F124
:10077000380009F0EBFA04F1B80A2946A4F8485009
:100780006C2204F14C0009F0E1FA04F1C809294691
:100790001022504609F0DAFA29461022484609F09C
:1007A000D5FA40F20113A4F8DC304FF47F43A4F8EB
:1007B000EC30FF2384F8EE3010222946C4E9385586
:1007C000C4E93C55C4F8D88084F8DE7084F8DF6052
:1007D000C4F8E850C4F8F850684609F0B7FA69461A
:1007E0005046FFF766FE6846FFF752FD1022294685
:1007F000684609F0ABFA69464846FFF75AFE684674
:10080000FFF746FDA3685A1013F0010F04EB6300D5
:1008100018BFA258636818BFD3589847204604B041
:10082000BDE8F08714E60000A90500007F05000080
:100830002DE9F0433A4B03603A4B436000253A4BB5
:10084000C360044685B00E46C0E90555C0E90755AA
:10085000174685608584294600611022283009F0FA
:1008600075FA2946102204F1380009F06FFA04F1F4
:10087000B8092946A4F848506C2204F14C0009F04C
:1008800065FA04F1C80829461022484609F05EFAC4
:1008900029461022404609F059FA40F20113A4F803
:1008A000DC30337984F8DE30337B84F8DF304FF48A
:1008B0007F43A4F8EC30FF2384F8EE301022294661
:1008C000C4E93865C4E93C55C4F8D870C4F8E850A8
:1008D000C4F8F850684609F039FA69464846FFF707
:1008E000E8FD6846FFF7D4FC10222946684609F067
:1008F0002DFA69464046FFF7DCFD6846FFF7C8FC65
:10090000A3685A1013F0010F04EB630018BFA2583C
:10091000636818BFD3589847204605B0BDE8F083F8
:1009200014E60000050600007F0500002DE9FF41E8
:10093000036804461B6816460F46984794F8DC3057
:10094000350103B186B194F8DD300BB1012E0BD027
:10095000B83539466019FFF7ACFD236820465B685F
:10096000984704B0BDE8F081B83501F093FB254409
:10097000FA68EB6804F14C0872B10BB901F090FD14
:1009800039462846FFF795FD01223146404604F0DE
:10099000A5FD01F095FBE0E70BB101F097FD1022FA
:1009A0000021684609F0D2F969462846FFF781FD23
:1009B0006846FFF76DFC0022E7E700001FB51A4B01
:1009C0000360044610220021684609F0BFF90022A6
:1009D00069462046FFF7AAFF6846FFF759FC102238
:1009E0000021684609F0B2F9012269462046FFF766
:1009F0009DFF6846FFF74CFC04F1C800FFF748FC78
:100A000004F1B800FFF744FC04F13800FFF746FD9D
:100A100004F12800FFF742FD206A08B100F05AFFF8
:100A2000204604B010BD00BF14E6000010B5044617
:100A3000FFF7C4FF2046FC2101F05BFE204610BDFD
:100A400000EB0110B83008B5C3680BB1FFF714FD17
:100A500008BD036870B504461B680D46984794F8B6
:100A6000DC30AB422BD065B194F8DD304BB9A268D5
:100A70006368511004EB6200D20744BF6258D35838
:100A8000984701F007FB05B3D4F8C4305BB104F11B
:100A9000B800FFF7F1FC01F003FD0122002104F191
:100AA0004C0004F01BFD01F00BFB84F8DC5035B961
:100AB00094F8DD301BB904F14C0004F02FFC2368DE
:100AC00020465B68BDE8704018472A46294604F175
:100AD0004C0004F003FDD4F8C430002BE3D001F047
:100AE000F5FCE0E7036870B504461B680D469847BF
:100AF00094F8DD30AB422BD065B194F8DC304BB9C3
:100B0000A2686368511004EB6200D20744BF6258C8
:100B1000D358984701F0BEFA05B3D4F8D4305BB18E
:100B200004F1C800FFF7A8FC01F0BAFC012211464D
:100B300004F14C0004F0D2FC01F0C2FA84F8DD505C
:100B400035B994F8DC301BB904F14C0004F0E6FB35
:100B5000236820465B68BDE8704018472A4601219B
:100B600004F14C0004F0BAFCD4F8D430002BE3D0EC
:100B700001F0ACFCE0E7036801221B690021184783
:100B8000036800221B691146184703689B681847D1
:100B900010B50446074B236000220023C4E902235A
:100BA00000230846A161C4E90433034900F0CEFDE7
:100BB000204610BD2CE600008B0B000007B500900E
:100BC00000F10801806900F000FE03B05DF804FB4D
:100BD00000F10801806900F027BE000010B5034B4A
:100BE00003600446FFF7F4FF204610BD2CE600002A
:100BF00080F84C190020704780F85018002070478A
:100C000090F84C09704790F85008704700207047E2
:100C1000012070476FF01C0070477047034607C9FA
:100C200083E807007047704710B442688168541029
:100C3000034601EB6200D20748BF0A591B685DF802
:100C4000044B48BFD358184700F6181001F0AABD4E
:100C500000F6181001F0C4BD13B5036801910446F5
:100C60001B6C984701992046FFF7F3FE2368204646
:100C70005B6C9847002002B010BDA0F1FC00FFF7AC
:100C8000EBBF13B50368019104461B6C98470199AB
:100C90002046FFF727FF236820465B6C984700201B
:100CA00002B010BDA0F1FC00FFF7EBBF00207047C1
:100CB000012070476FF01C007047D0F8540908B548
:100CC00020B1FFF7F3FB003818BF012008BD00007A
:100CD0000C4B10B5036050330446C0F8FC30D0F81C
:100CE000540910B103685B68984704F63C10FFF79D
:100CF000CFFA04F6181001F091FD2046FFF75EFED2
:100D0000204610BD4CE60000A0F1FC00FFF7E0BF5C
:100D100010B50446FFF7DCFF204640F6581101F0FD
:100D2000E8FC204610BDA0F1FC00FFF7F1BF1FB5A5
:100D3000044610220021684609F008F8002269469E
:100D40002046FFF7F3FD6846FFF7A2FA002384F878
:100D50004E3904B010BD1FB504461022002168466C
:100D600008F0F4FF012269462046FFF7DFFD6846E0
:100D7000FFF78EFA002384F84D3904B010BD10B58A
:100D8000044601F087F9D4F80024D4F804349A42D8
:100D90000ABF94F80844002484F0010401F090F99B
:100DA000204610BD38B503681B6C0446984704F212
:100DB0000C552846FFF7E3FF23685B6C48B92046D3
:100DC0009847012001F097FC236820461B6C984748
:100DD000EFE720469847002038BDA0F1FC00FFF760
:100DE000E1BF38B5054600F58070FFF7C8FF80F019
:100DF00001042846E4B2FFF760FF18B144F4005440
:100E0000204638BD01F046F995F8145901F058F91B
:100E1000002DF5D144F01004F2E7A0F1FC00FFF73B
:100E2000E0BF70B504460D4601F034F901F032F927
:100E300094F8086401F044F946B1D4F8043401335D
:100E4000B3F5806F08BF0023C4F80434D4F800243D
:100E5000531CC4F800342978A154B3F5806F04BF43
:100E60000023C4F80034D4F80024D4F804349A429F
:100E700004BF012384F80834BDE8704001F020B9B4
:100E800038B504460D4601F005F92046FFF777FF17
:100E9000B0B9D4F804345A1CC4F80424E35C2B70B1
:100EA000D4F80434B3F5806F4FF0000308BFC4F8E2
:100EB000040484F80834012401F002F9204638BD06
:100EC0000024F9E770B504460D4604F63C1601F01F
:100ED000E1F8AE4210D03046FFF7DAF910220021D7
:100EE000304608F033FFEB681BB15B68294630469B
:100EF0009847EB68C4F84839D4F848394BB12368AF
:100F000047F6FF711B692046984710B13046FFF73E
:100F1000B3FABDE8704001F0D3B8A0F1FC00FFF7D0
:100F2000D1BF08B5D0F848391BB100F63C10FFF727
:100F3000A3FA08BDF7B500F5807504462846FFF70B
:100F40001EFF064601F0A6F894F8087501F0B8F8FF
:100F500077B92046FFF7C4FB50B12046FFF7E2FB0C
:100F60000DF107018DF807002846FFF75AFFE9E762
:100F700094F84E394BB101F08DF894F8087501F0F2
:100F80009FF817B12046FFF7D2FE36B12846FFF78B
:100F9000F6FE10B92046FFF7C4FF03B0F0BD73B5ED
:100FA000044601F077F894F8145901F089F804F236
:100FB0000C562046FFF7A5FB58B10DF1070130464E
:100FC000FFF75EFF28B19DF807102046FFF7ADFB45
:100FD000EFE794F84D393BB104F20C50FFF7CFFE28
:100FE00010B12046FFF7B7FE6DB101F053F894F849
:100FF000145901F065F835B92046FFF75EFE10B9C7
:101000002046FFF78EFF02B070BDF8B505460C46CE
:10101000164600F20C573846FFF7B1FE40B1A7194B
:10102000BC4209D014F8011B2846FFF77EFBF7E706
:101030002846FFF7B4FFEEE73046F8BD38B510227A
:101040000D460021044608F081FE95E80700024B9A
:10105000E36084E8070038BD38E6000010B588B0CA
:101060000B4B01930023CDE90230044601A904A8EB
:10107000FFF7E4FF012204A92046FFF757FC04A86C
:10108000FFF706F9012384F84D3908B010BD00BF01
:101090009F0F00002DE9F84304460F461646002A2C
:1010A00067D000F0F4FF054630B13246394620469D
:1010B000BDE8F843FFF7A9BF236820461B6C98479B
:1010C00004F20C58AE4249D900F0E4FF94F81499A8
:1010D00000F0F6FFB9F1000F17D094F84C39002B4F
:1010E0003CD0236820465B6C9847012001F003FB4D
:1010F000236820461B6C984700F0CCFF94F81499A5
:1011000000F0DEFFB9F1000FEBD100F0C3FF94F85F
:10111000149900F0D5FFB9F1000F0AD139464046C5
:101120000135FFF77EFE07F10109AE424F46ECD1D3
:10113000354600F0AFFF94F84F3963B194F84D395C
:101140004BB92046FFF72BFF4046FFF718FE10B9BA
:101150002046FFF783FF00F0B3FFB3E72368204684
:101160005B6C9847002D14BF28466FF00A00BDE85D
:10117000F8831046FBE7A0F1FC00FFF78BBF0000EF
:1011800030B5002589B00B4B01930446CDE90250E0
:1011900001A904A8FFF752FF2A4604A92046FFF739
:1011A000C5FB04A8FFF774F8012384F84E3909B091
:1011B00030BD00BF350F000038B50446FFF738FBDF
:1011C000154B002503F108025833C4F8FC302260A7
:1011D000C4F80055C4F8045584F80855C4F80C59EF
:1011E000C4F8105984F8145904F6181001F0D2FA12
:1011F0001022294604F63C1008F0A8FD074BC4F85D
:101200004C390123204684F85039C4F85459FFF76B
:10121000B7FF204638BD00BF44E6000001000001D2
:101220002DE9F341044688461646002A4AD0036851
:101230001B6C984704F580773846FFF7A0FDA0B1F6
:10124000236894F84C295B6C20462AB998476FF0C4
:101250000A0002B0BDE8F0819847012001F04BFA86
:10126000236820461B6C9847E6E7054608EB050116
:10127000AE42019109D03846FFF781FD28B90199A6
:101280003846FFF7FDFD0135F0E700F003FF94F865
:1012900050397BB194F84E3963B92046FFF74AFEC6
:1012A00000F0F8FE94F8086500F00AFF16B9204631
:1012B000FFF766FF00F004FF236820465B6C984749
:1012C0002846C6E71046C4E7A0F1FC00FFF7A8BF18
:1012D00008B5064B06490122C3F8002505F040FC7D
:1012E000002814BF6FF06F00002008BD00A002505E
:1012F000C80F002010B50C48FFF796F801F052FA1D
:101300000A48D0F8E4300133012BC0F8E43009D1A9
:10131000FFF7DEFF04460448FFF786F801F060FAA5
:10132000204610BD0024F6E7A8270020D027002083
:1013300037B590F900300D46591C04D114491548B1
:10134000202200F085FD0124AAB11F2B86BF124A7E
:1013500003F01F034FF0A04204FA03F3C2F808356C
:101360000121019003F0E6FB0198294603B0BDE896
:10137000304003F0BDBB1F2B86BF074A03F01F039D
:101380004FF0A04204FA03F3C2F80C35E8E700BFBF
:101390006CE40000A7E400000003005037B50D46E0
:1013A0000446019203F052FB013507D0019A002157
:1013B000204603B0BDE83040FFF7BABF03B030BDF0
:1013C0000022FFF7EBBF000000487047F0E6000086
:1013D000024B1B680BB102481847704704020020FB
:1013E000F0E600002DE9F74F446894F83A100646FD
:1013F000002955D10168496888477168096A8142A6
:1014000005464DD0206AE168A6682562281A014089
:10141000384886428C464FF0000E39D094F83BB0E5
:10142000D4E90A5A0027A1FB0001BBF1000F46D006
:10143000CBF1200801FA08F820FA0BFCABF1200EE2
:1014400021FA0EFE4CEA080C4CEA0E0C2D1821FA7B
:101450000BFEABF120094AEB010ACBF120080EFA92
:101460000BF10CFA09F941EA09012CFA08F80CFA17
:101470000BF02B1A41EA080100936AEB0103019378
:10148000DDE90023BB4208BFB2420CD2C4E90A2303
:10149000D4E90C0110EB0C0041EB0E01C4E90C0186
:1014A00003B0BDE8F08F009B1CF1010C4EF1000E63
:1014B0009A1B019B63EB0703C4E90A23E8E7324662
:1014C0003B460CF03BFE12EB050843EB0A09B9451D
:1014D00008BFB04584468E4602D2C4E90A89D7E7E0
:1014E00010F1010C41F1000EB8EB060269EB0703A5
:1014F000E2E700BF40420F00824206D98A420BD980
:10150000884294BF002001207047884206D98A4251
:101510008CBF0020012070470120704700207047D9
:101520002DE9F74FD0F8048098F83A300446002BA4
:1015300078D198F83930002B74D1FFF753FF6568E4
:101540006B68002B71D0D5E90C01D3E900239942D7
:1015500008BF904205D323685B6903B0BDE8F04F34
:101560001847161A63EB0107D5E90623BB4208BFEB
:10157000B242D5F8109006D3AA68334B9A4211D1E3
:10158000B14528BFB1462A6AD8F820309144EA68AC
:1015900009EA0202934235D12C492D4840F21B1230
:1015A00000F056FC95F83B30EBB1A3F1200CC3F1F1
:1015B000200226FA02F206FA03F007FA03F106FA0D
:1015C0000CFC244E41EA0C01114380191E4A4FF0D5
:1015D00000064FF0000346EB01010CF0AFFD814522
:1015E00028BF8146CFE71B48A2FB06AB02FB07BB27
:1015F0001AEB00004FF00001134A4FF000034BEBD1
:101600000101EAE72368019210461B6998472368A5
:101610005B689847019A0146D8F82000FFF76CFFF5
:10162000002898D103B0BDE8F08FD8F81030D8F872
:101630002000D8F80C20184423681B69104003B020
:10164000BDE8F04F184700BF40420F001CE7000004
:101650003CE700003F420F002DE9F04F436893F84C
:10166000382085B00546002A63D193F83A30002B24
:101670005FD103681B6898472B68DB69984703684C
:101680002BB92D492D4800931A4600F067FE1F2103
:10169000012202FA01F4A3425FFA81FA02D0013971
:1016A000F7D18A464668321F1C2A05D900232449EF
:1016B000244800931A46E8E71C4614F1FF384FF01F
:1016C000000321494FF0070743F1FF399740C1FB61
:1016D00007892246404649460CF030FD6B682A686F
:1016E00003934FF00008C3E9008852688946834697
:1016F0009047039B0122186202FA06F66B680021EC
:101700000020013EC3E90A01C3E90C01C3E90367F4
:101710002846C3E906B99C6083F83BA01A8783F882
:101720003A80FFF75FFE284605B0BDE8F04FFFF7AF
:10173000F7BE05B0BDE8F08F60E700000E01048041
:1017400079E700000501048040420F0038B50546E6
:101750000C46FFF781FF00F09DFC6B681C60BDE844
:10176000384000F0ADBC70B5044600F093FC23682F
:10177000DB689847636893F83A201AB1BDE8704077
:1017800000F09EBC012283F8392063685B68A3B136
:101790002046FFF727FE65686E68D5E90C01D6E99B
:1017A0000023994208BF904207D3F3686B602B680F
:1017B000002BEAD0B0689847E7E76368002283F817
:1017C00039202046FFF7ACFED8E72DE9F7430A9D04
:1017D00001900C469046994600F05CFC0198FFF79A
:1017E00001FE0198A5604268C4E9008953680021A0
:1017F0002BB9E36061B95460FFF792FE0FE0D3E9C3
:101800000067B94508BFB045F3D31946DB68EFE779
:10181000D2E90C234B4508BF4245CC60ECD203B063
:10182000BDE8F04300F04CBC38B505460C4600F06E
:1018300031FC6A685368A34209D1DB6853602846CB
:10184000FFF76EFEBDE8384000F03ABC1346002BAF
:10185000F8D0DA68A242F9D1E268DA60F2E738B586
:101860000446FFF7F9FE00F015FC2046FFF7BAFD2D
:101870006368D3E90C4500F023FC2046294638BDB7
:1018800008B5FFF7ECFF08BD024B00221A7003F009
:10189000CDBF00BFD83D002008B503F033FF024B99
:1018A00001221A7008BD00BFD83D002000487047D3
:1018B000B8E70000024B1B680BB10248184770479D
:1018C00008020020B8E7000091F90C2091F90410FB
:1018D00003F044BC024B1B6803B11847704700BFBC
:1018E0003829002007B5019000F0D4FB019803B01F
:1018F0005DF804FB07B5019000F0E2FB019803B02E
:101900005DF804FB036870B51B69012200210446E1
:101910009847051E0DDB236802221B690021204623
:1019200098472368064629461B69002220469847A7
:101930003546284670BD000010B50446FFF728F96B
:10194000074B2360A069FFF78AFF00220023C4E948
:101950000A230023C4E908012363A386204610BD9F
:101960003CE800004FF0FF307047000038B590F8B9
:101970003450044625B10A490A48912200F068FA19
:10198000FFF726F994F8353084F8315084F8325056
:101990002BB184F83550BDE8384000F097BD38BD14
:1019A000E4E700000BE80000283000F098BAD0E926
:1019B0000A32013342F10002C0E90A32D0E90832AA
:1019C00013F57A7342F10002C0E908327047D0E99A
:1019D000082312F57A7243F10003FFF7EFB870B5F0
:1019E00006468069FFF73BFFD6E90832C41A61EB6F
:1019F0000205002D08BFB4F57A7F16D3002D08BF6D
:101A0000B4F5FA6F13D3012D08BF002C05D24FF4A3
:101A10007A70B4FBF0F0002106E04FF47A720023F4
:101A2000204629460CF08AFB70BD0020F3E7012018
:101A3000F1E70000F8B590F83430044613B990F897
:101A4000315025B10E490F48E12200F001FAFFF7AD
:101A5000C6FF4FF47A73A0FB036703FB0177D4E959
:101A600008329B1947EB0202C4E90832D4E90A3272
:101A7000C01842EB0101C4E90A0184F83050F8BDF6
:101A8000E4E7000015E800002DE9F0471F4690F854
:101A900034300446164623B119491A485B2200F037
:101AA000D7F990F8315045B9FFF7C4FFB94208BFE4
:101AB000B04204D3012384F83230BDE8F0874FF4FC
:101AC0007A73A6FB038994F8352084F8325003FB1F
:101AD0000799012384F8313042B9A269126892F85B
:101AE00020201AB984F8353000F0DAFC002384F89D
:101AF000333042464B462046BDE8F047FFF75EB81C
:101B0000E4E700000BE80000024B4FF080625A60EF
:101B1000704700BF00ED00E010B5012380F83430BD
:101B200090F8303004460BB1FFF7EEFF2046FFF788
:101B30004EFF10BD08B50121303000F0AFF908B1FB
:101B4000FFF7E2FF08BD90F8313010B504464BB105
:101B5000002380F8313090F8333013B9012380F836
:101B6000323010BD90F83430002BFAD090F830307D
:101B7000013380F83030FFF7C7FF2046FFF717FF2B
:101B80002046FFF724FFECE7024B4FF000725A604B
:101B9000704700BF00ED00E010B50446FFF718F8ED
:101BA000002384F83430FFF7EFFF10BD10B5064B6B
:101BB00003600446FFF7F0FF2046FFF7D7FE2046FC
:101BC000FFF70CF8204610BD3CE8000010B50446B5
:101BD000FFF7ECFF2046382100F08BFD204610BDBA
:101BE0004FF0100300F00CB84FF0200300F008B8DD
:101BF0004FF0300300F004B84FF0400300F000B89D
:101C0000EFF308804FF0040172460A4201D0EFF36F
:101C100009809C46254B196802680A6004314268B5
:101C20000A60043182680A600431C2680A600431C3
:101C3000F0C147460F6004314F460F6004315746EC
:101C40000F6004315F460F60043102690A60083199
:101C500042690A60043182690A600431C2690A601B
:101C60000431034620334FF40076324200D004336F
:101C700075464FF01006354200D148330C46103CF3
:101C80002360EFF309820A600431EFF308820A60EF
:101C9000043172460A600431EFF314820A60604630
:101CA000024B196800F07AF8FEE7000008EA00002D
:101CB000F0B52C4E2C4F85B000243546214656F801
:101CC000042B3846013400F0C9F90D2CF6D1AB6C69
:101CD00002936B6C01932B6C244C0093D5E90E237B
:101CE000696B234800F0BAF92168224800F0B6F980
:101CF000E16AA26AA36AA06A266BE76B000CCDE9D1
:101D000001670090C3F307231B48D2B200F0A6F985
:101D1000A36A1E0603D5616B184800F09FF9A36AF9
:101D2000180403D5A16B164800F098F9EB6C19075D
:101D300012D5144800F092F92B6DDA070FD512482E
:101D400000F08CF9EB6C5B074CBF1048104805B0F5
:101D5000BDE8F04000F082B90E4800F07FF90E486F
:101D6000EEE700BFDC3D002048E8000000ED00E0A9
:101D700056E80000A5E80000B3E8000002E9000012
:101D800010E900001EE900002DE900005DE90000F7
:101D900069E900004DE900003AE9000037B5044662
:101DA0000D461A48012100F094F868BB184800F06D
:101DB00055F9302C19D0402C1CD0202C1FD115489F
:101DC000154C00F04BF9154800F048F9FFF770FF8B
:101DD000134800F043F90D4B00221A7000231149FB
:101DE00000932A46204600F0B9FA0F480F4C00F045
:101DF00035F9E8E70E480F4C00F030F9E3E70E48FC
:101E00000E4C00F02BF9DEE70024E7E7303E00201F
:101E100075E900009EE900003E01FF80CBE900006B
:101E2000D6E90000F5E90000ADE900003F01FF80C0
:101E3000B6E900004001FF80C1E900003D01FF80DC
:101E400007F042BB07F0DABF07F006BA07F07EB929
:101E500007B50B46009201460022014800F07EFAC9
:101E60004401FF8003460122D3E84F0FC3E8412F0E
:101E7000C0B20029F8D17047D0E85F3F5B18C0E8D6
:101E8000523F002AF8D198B27047034653E8000F3A
:101E9000401843E80002002AF8D17047D0E84F3FCD
:101EA0005B1AC0E8423F002AF8D1D8B27047D0E8A8
:101EB0005F3F5B1AC0E8523F002AF8D198B27047E2
:101EC000034653E8000F401A43E80002002AF8D105
:101ED0007047D0E84F3FC0E8421FD8B2704738B5CE
:101EE000044600F0D7F8D4E9004500F0E9F82046B0
:101EF000294638BD08B5024902482022FFF7A8FF4D
:101F00006CE40000A7E4000083B500F0C3F80521ED
:101F100001A8FFF755FA2C4C2C4D04269DF90430EE
:101F20005F1C01D1FFF7E6FF1F2B86BF03F01F03E5
:101F300021464FF0A041012202FA03F3C1F808350F
:101F4000284600F0DAFB9DF90430581CEAD01F2B1C
:101F500086BF03F01F0321464FF0A041012202FA81
:101F600003F3C1F80C35284600F0C7FB013ED5D17C
:101F7000174F04269DF90430591CD3D01F2B86BF60
:101F800003F01F0321464FF0A041012202FA03F3A0
:101F9000C1F80835384600F0B0FB9DF904305A1CF2
:101FA000C0D01F2B86BF03F01F0321464FF0A04176
:101FB000012202FA03F3C1F80C35384600F09DFB0C
:101FC000013ED7D1A9E700BF00030050F04902004D
:101FD000801A060073B5002201460446022000F074
:101FE0006DFB0D2600F056F80022254614F8013B43
:101FF0001BB900F065F802B070BD0A2B09D10D2A9B
:1020000007D001220DF1070102208DF8076000F0D2
:1020100055FB01222946022000F050FB14F8012C48
:10202000E3E7000000B5A3B002460B4601A88421F7
:1020300009F0BCFF832806D9074B1A681B79CDF835
:1020400083208DF88730002802DD01A8FFF7C2FF4A
:1020500023B05DF804FB00BF0CEA00000FB407B525
:1020600004A951F8040B0191FFF7DCFF03B05DF800
:1020700004EB04B07047EFF31080C04300F00100A0
:102080007047EFF30580003818BF0120704702F059
:10209000BBBB000008B502F0A7FB064A1368591C39
:1020A00004D1054905483F22FFF7D2FE01331360F2
:1020B00008BD00BF3C29002011EA00003BEA0000F7
:1020C000044A136823B1013B13600BB902F094BBBF
:1020D000704700BF3C29002008B50B48FFF7C2FE3F
:1020E00028B1FFF7D7FFBFF34F8F20BFFDE7FFF702
:1020F000C8FF08B1FFF708FFFFF7BDFF0028F9D0C0
:10210000012000F04EFA00BF7C290020F0B5284DD8
:102110008FB035EA200528BF05460E461746002138
:10212000302202A807F012FE224B01952B44012B0E
:1021300001AC039605D9204B9D4202D0033B9D4242
:1021400032D1F36B0293736B08931C4B5B6904935E
:10215000DA6B05925A6B1B6B06920793FFF79AFF97
:10216000174A13680133012B136009D126460FCE9D
:10217000144D0FC50FCE0FC50FCE0FC533682B60A2
:102180000FCC114D0FC50FCC0FC50FCC0FC5236859
:102190002B600E4B1B6813B1A5F130009847FFF779
:1021A0008FFF00200FB0F0BD02970894CDE700BF6D
:1021B0000101FF80C2FE007F4001FF801403002068
:1021C000402900204829002080290020442900209F
:1021D0002DE9FF41464C0E462168C1F34173032BA4
:1021E0000CBF4D428DB2C1F30743804617464148AC
:1021F0002A46FFF733FF6FF498731D44132D0FD851
:10220000DFE805F00A585B5E6167646A0E0E0E0E29
:102210000E0E0E0E0E0E0E6DA1683748FFF71EFF54
:102220004046FFF7D7FE61683448FFF717FF4EB10D
:102230003348FFF7CFFE3046FFF7CCFE3148394632
:10224000FFF70CFFA1683048FFF708FF23682F4A0B
:102250001A44012A05D92E4A934202D0033A9342E6
:1022600041D1A06820B1C06C80F00800C0F3C0006C
:10227000E368002B39D05968264A002908BF114667
:10228000E2690392A2690292626901922269009254
:10229000214D224A002818BF2A462148FFF7DEFEBA
:1022A00021682048FFF7DAFE1F4804B0BDE8F0417E
:1022B000FFF7D4BEA1681D48B0E7A1681C48ADE790
:1022C000A1681C48AAE7A1681B48A7E7A1681B48AA
:1022D000A4E7A1681A48A1E7A1681A489EE71A482E
:1022E000FFF7BCFE9CE70020C2E70A49C8E700BF31
:1022F0008029002081EA0000D2EA00007AEB000089
:102300008BEB000093EB000097EB0000C2FE007F18
:102310004001FF806CEA000076EA0000F4E900006A
:10232000ABEB000004EC00004EEC0000E8EA00001B
:10233000F8EA000007EB00001AEB00002EEB0000AB
:1023400042EB000051EB000067EB000000207047FB
:10235000014B1878C0B27047303E002080B5064669
:102360000C460A480121F04617461D46FFF7B1FD0D
:1023700048B9424639463046FFF7C8FE029A294618
:102380002046FFF725FFFFF7A7FE00BF303E0020E5
:1023900038B5064C23683BB9FFF716F8044D0146E3
:1023A0002846FFF7C9FA2560206838BDF0290020CB
:1023B000B829002008B5836823B9054B1B6893F83A
:1023C000320008BDC06898470028F6D0F9E700BF82
:1023D000F029002037B5184D04462046FFF7EAFFE4
:1023E00040BBD4E90023591C08BFB2F1FF3F02D023
:1023F0002868FFF749FB01A8FFF774FA2046FFF7AA
:10240000D9FFA0B9D4E90023013308BFB2F1FF3FDF
:1024100007D100F07FF801A8FFF76CFABFF36F8FC8
:10242000DBE72B6893F83130002BF2D1F3E701A8FA
:10243000FFF760FA03B030BDF02900201FB5094C4A
:10244000CDE90001CDE90223FFF7A2FF6846FFF7BF
:10245000C1FF2068FFF78AFA2068FFF7EBFA04B0A3
:1024600010BD00BFF0290020F7B50D4601920446CB
:10247000FFF78EFFFFF798FA084A126892F83020AB
:10248000861A61F100073019019B2A4647F10001C5
:10249000FFF7D4FF801B03B0F0BD00BFF029002080
:1024A00013B5074C01212046FFF7E6FC034628B987
:1024B0000090228803490448FFF750FF02B010BD86
:1024C000F429002068EC00002301048013B5094CB6
:1024D00001212046FFF7EBFC4FF6FF73984206D12F
:1024E00000232288044905480093FFF737FF02B014
:1024F00010BD00BFF42900208AEC000024010480F4
:10250000034B188880B2B0FA80F04009704700BFD2
:10251000F429002008B5FFF7BDFDFFF7F1FF28B152
:1025200003F0D6F8BDE80840FFF7CABD03F0ACF8E9
:10253000F8E70000034B186818B14FF0FF3101F0C5
:1025400087BA7047883E0020024B186808B101F036
:1025500097BA7047883E00200020704700207047DF
:1025600008B5012000F01DF8074A0849136818440F
:10257000884289BF064B10600C224FF0FF308CBFA1
:102580001A601846704700BF0C03002000F80320B3
:10259000A44E002008B508B1FFF7B6FCFEE7012005
:1025A000704708B5FFF7F6FF0120704708B500F047
:1025B00091F908BD08B500F095F908BD10B50446BD
:1025C000037803F00303012B08D0FFF7B3FF237850
:1025D00003F00302012A03D1FFF7B6FF00200AE04F
:1025E0002AB10549054840F29D62FFF731FC43F0EE
:1025F00002032370012010BDA8EC0000D4EC000001
:1026000008B5037803F00302022A05D007490848F9
:1026100040F2A662FFF71CFC23F0030343F0010322
:102620000370BDE80840FFF78FBF00BFA8EC0000B3
:10263000F2EC00003F2870B504462EDC184D55F82A
:1026400020305A1C13D1022811DCFFF787FF034604
:1026500058B92046FFF780FF034630B9114E337852
:10266000BFF35B8FDB0704D50F4B45F824301846CA
:1026700070BD3046FFF7A2FF0028F5D00B490C488B
:102680004FF4E132FEF798FD3046FFF7B9FF094AF3
:1026900009490748FFF783FFE6E70023E7E700BFA4
:1026A0000C020020F8290020F82A00202CED000060
:1026B000FC29002000020020D10C000013B5CDE958
:1026C0000021FFF7B7FFDDE9002140B906F06EFDFC
:1026D000092303604FF0FF34204602B010BD0368A9
:1026E000DB689847041EF7DA06F060FD6442046078
:1026F000F0E706F0E1BE01F04DBE70B50446FFF70D
:10270000D5F80646FFF7BCF805463046FFF7B8F89F
:10271000431BA342F9D370BD13B50446FFF7B1FCC8
:1027200030B100230749084800931A46FFF716FE08
:10273000FFF7A1FC0028F4D0204602B0BDE810400D
:1027400001F028BE44ED0000060101801FB5002302
:1027500003620D4B002908BF1946031D02931C2379
:102760000446039368460B230091019301F058F946
:10277000206038B9FFF7ECFD20B90449044838223D
:10278000FFF766FB04B010BD8BED0000A5ED000067
:10279000C5ED000010B500210446FFF7D7FF204625
:1027A00010BD000037B504464FF0FF31006801F05E
:1027B0004FF9054628B9236A01332362002003B08C
:1027C00030BDFFF7C5FD03460028F7D10249034895
:1027D00000932A46FFF7C2FDE9ED000015010280D3
:1027E0001FB50446006801F04BF9024628B9236A78
:1027F000013B2362104604B010BD0390FFF7A8FD13
:10280000039A03460028F5D1024903480093FFF7D5
:10281000A5FD00BFFBED00001701028010B50446C6
:10282000006801F045F9204610BD000008B5094BCD
:10283000094A1A60094B9B1A094A1360094B0A4A54
:102840001A600A4B9B1A0A4A136000F051F800F014
:1028500065F800BFC033002000F80320000004200A
:10286000BC33002058330020A84E002000F803207D
:10287000543300200E4838B50E4B03600B250E4B29
:1028800045601C24C460836001F0CAF80B4B1860DB
:102890000B480C4BC460C0E900350B4B836001F062
:1028A000BFF80A4B1860BDE8384006F0D9BD00BF3C
:1028B0008C3300200FEE0000A03300209C3300205A
:1028C0005C3300201CEE0000703300206C330020CD
:1028D000FDF7E6BC024B4FF0FF31186801F0B8B8C5
:1028E0009C330020014B186801F0CAB89C330020CB
:1028F00008B502F0A3F9BDE8084000F00CB8704735
:1029000008B5FFF7B7FFFFF7FAFFFFF71FFDBDE8B8
:102910000840FFF7DDBF00F03BBB000007B51748DC
:10292000174B03600B2343601C23164CC360164BEC
:102930008360164B23614FF4805363614423E3604B
:10294000134BA3601823A361124B236001F068F8B6
:10295000114B224618600021104801F08BFC034601
:1029600028B90F49009022460E48FFF7F7FC00F007
:1029700027FB00230C4900931A46F5E7543E00203C
:1029800026EE0000643E0020383E0020903E0020ED
:10299000C433002036EE0000883E002001290000EC
:1029A0003BEE00001D01018057EE000073B50646A6
:1029B0000C461546FFF7CCFC58B906342ABF064B27
:1029C000064953F824100023009332462846FFF7A7
:1029D000C5FC02B070BD00BF20F0000074EF000025
:1029E00008B500F0DBF8000007B50023421E009395
:1029F0000023042A19D8DFE802F003080C101400A1
:102A00000C490D480122FFF7A9FC0C490C48022291
:102A1000F9E70C490C480322F5E70C490C4804225D
:102A2000F1E70C490C480522EDE702460B490C483A
:102A3000E9E700BF6CEE0000250102808DEE00008A
:102A400026010280B2EE000027010280E7EE0000BE
:102A50002801028022EF00002A01028062EF0000BC
:102A600000010280014A0146FFF7A0BF3101018049
:102A7000014AFFF79BBF00BF32010180014AFFF707
:102A800095BF00BF33010180014AFFF78FBF00BF30
:102A90003801018010B501F005FC034B1B6813B130
:102AA000BDE81040184710BD08340020024B987A4A
:102AB000003818BF012070471403002008B500F04B
:102AC00095FA07490022FFF7CFFC431C04D10549C2
:102AD00005488922FFF7BCF9BDE8084000F09ABA22
:102AE000AD2A000038F000006EF00000B0F57A7FEB
:102AF00038B50D4604D0184918483422FFF7A8F914
:102B0000FEF730FF041E13DB04F1604303F561435D
:102B1000E02283F800232946204601F06FFC20467E
:102B200001F074FC85420AD00B490D484122E5E7CB
:102B30000C4B04F00F021344E0221A76EBE7002C52
:102B400008DB6209084B04F01F04012000FA04F4BA
:102B500043F82240002038BD38F000008AF0000021
:102B600097F00000FCEC00E000E100E008B5FFF7A2
:102B70000FFCBDE80840FEF7CFBF0000014B18680E
:102B8000FFF70AB8F0290020014B1868FEF7D2BF02
:102B9000F029002008B5FEF7E5FE08BD08B5024C97
:102BA00023689847FCE700BF100300201EF0040FC5
:102BB0000CBFEFF30880EFF30980816911F8021C64
:102BC00091BB01B590E80F10E047BDE800508CE8DC
:102BD0000300244B93E80600914208BF704741B9B7
:102BE0001EF0100F10D12049086820F00100086085
:102BF0000AE02CE9F00F1EF0100F08BF2CED108A30
:102C0000C1F838C081F822E01A6092F82210906B67
:102C100061F0FF0E1EF0100F08BFB0EC108AB0E894
:102C2000F00F80F309887047104A13689942FAD868
:102C300001B552F821C00FC8E047BDE80050CCF8FC
:102C40000000704701B500F091FFBDE80140EFF3CF
:102C5000098CBEE701B500F051FFBDE80140EFF37C
:102C6000098CB6E72803002034EF00E084F100006F
:102C700008B5014610B1132001F076FA002008BD16
:102C800008B5EFF3058313B9EFF3108333B16FF099
:102C9000050000F00DF86FF0050008BDEFF311839B
:102CA000002BF4D1DFF804C000DFF6E7712C000040
:102CB0007047EFF310832BB9EFF31180003818BF82
:102CC000012070470120704770B5484C217A0129D6
:102CD00000F08A8031B14FF0FF30FFF7C3FE4FF0B4
:102CE000FF3070BD424D9C2204F1080007F02EF821
:102CF000D5E90B61EB68E3652B8AA4F854303046C4
:102D0000AB68236400F09CF908B1C4F88060D5E991
:102D10000561304600F094F908B9D4F88060666720
:102D2000D5E90761304600F08BF908B9D4F8806026
:102D3000A667D5E90961304600F082F908B9D4F8F0
:102D40008060E6676E6B3EB1D6E90223316830469B
:102D500000F0E5F9C4F88460AE6B3EB1D6E9022319
:102D60003168304600F0DBF9C4F88860EE6B3EB1A4
:102D7000D6E902233168304600F0D1F9C4F88C60FE
:102D80002E6C3EB1D6E902233168304600F0C7F917
:102D9000C4F890606E6C3EB1D6E9022331683046CB
:102DA00000F0BDF9C4F89460AE6C3EB1D6E90223E0
:102DB0003168304600F0B3F9C4F89860EE6C3EB16B
:102DC000D6E902233168304600F0A9F9C4F89C60C6
:102DD0002D6D3DB1D5E902232968284600F09FF901
:102DE000C4F8A0500123237200207AE714030020C6
:102DF0001CF1000070B5264D2B7A012B07D06FF027
:102E00000600FFF72FFE4FF0FF34204670BD01F0A3
:102E100011FA10B94FF0FF30F3E71E4A1E4E1F495A
:102E20007068FF2382F8223092F82230D26863F073
:102E3000FF03DB4314BFB3FA83F32023C3F1200362
:102E4000C2F30222934298BF531CFE2202FA03F3FC
:102E5000104ADBB2D377FFF749FE04460028D9D1E8
:102E6000FFF798FE2861FFF781FE0D4800F0D2FFC2
:102E700001F032F8336813F0010F4FF0020303D072
:102E800083F314882B72C0E7032282F31488F9E7D6
:102E90001403002000ED00E01CF10000552C0000A0
:102EA0003003002010B5134C237A022B05D06FF0AD
:102EB0000700FFF7D7FD002010BDFFF75FFE0123DD
:102EC0006372BFF34F8F0C4A5168C90042BF4FF085
:102ED00000615160A372E36A4BB1D869636C1BB1A6
:102EE0001B69984228BF184604232372E4E74FF079
:102EF000FF30F3E71403002000ED00E0F8B5214CAB
:102F0000237A042B05463BD1E3680344E360E36A7C
:102F100053B106460127DA69B24225D8DF61B61AF5
:102F200000F0A4FFE36A13BB636C4BB10126186980
:102F3000A8421FD81E61236D2D1A9847636CE3B910
:102F400002230020237200F0D1FF00236372BFF33D
:102F50004F8FA27A22B1A3720B4B4FF080525A606E
:102F6000BDE8F840FFF702BE961BDE61DCE7002EED
:102F7000D1D1D9E7401B1861E2E7002DD7D1DFE7B7
:102F8000F8BD00BF1403002000ED00E07047000012
:102F900008B5FFF7FBFFEFF3058333B16FF00500D2
:102FA000FFF760FD6FF0050008BDFFF782FE002807
:102FB000F4D1DFF808C000DFF6E700BFC92C00003D
:102FC00008B5EFF3058333B16FF00500FFF74AFD55
:102FD0006FF0050008BDFFF76CFE0028F4D1DFF8A4
:102FE00008C000DFF6E700BFF52D000008B5EFF3DD
:102FF00005832BB16FF00500FFF734FD002008BDFD
:10300000FFF757FE0028F5D1DFF804C000DFF6E730
:10301000A52E000008B50246EFF305832BB1BDE8ED
:1030200008406FF00500FFF71DBDFFF742FE0028C6
:10303000F5D1DFF808C0104600DF08BDFD2E000006
:1030400010B598B140EA010313F007030ED1172918
:103050000AD90160083910220C18846042600B50B4
:1030600081684A60C3600123184610BD0023FBE756
:10307000F0B578B399B132F003032BD10F3121F0C1
:10308000070700F108052B462D685C68E91A24F053
:103090000304091B8F4204D929680029F3D108468B
:1030A000F0BD466804683E444660204408384168E4
:1030B0008E4288BF466058683A4318B95A6003F197
:1030C0000801ECE720F0030019181D504A60196050
:1030D0000831E4E70021E2E730B590B1D9B1A1F1C0
:1030E000080500F108040022AC420BD151F8043C61
:1030F00023F0030443681B1B436042B941F8042CCE
:10310000012030BD236822463BB11C46ECE751F854
:10311000083C1360F4E70846F3E71846F1E730B5DA
:10312000C0B189B1C2B1CBB10024C0E9014202FBF8
:1031300001F41D190160C36043610561184601393E
:1031400004D1A21A99500121084630BD85180560A6
:103150002846F4E70146F7E71146F5E71946F3E795
:1031600010B50346A8B100F1140252E8000F10B9DF
:10317000BFF32F8F04E0016842E8001404B1F4E7C4
:1031800038B1043353E8002F511C43E8001404B154
:10319000F8E710BD30B5F0B1C3688B421BD80369A6
:1031A0008B4218D900F114031A680A60BFF35F8FCD
:1031B00053E8002F0C689442F6D143E8001505B19E
:1031C000F2E7043050E8003F5A1E40E8002101B108
:1031D000F8E7002030BD6FF00300FBE7EFF310834A
:1031E0002BB9EFF31180003818BF01207047012080
:1031F0007047036B30B5E3B1CD780024DA78AA428A
:103200000FD31A46C1E901248AB19160A4B161606B
:10321000283050E8003F5A1C40E8002101B1F8E78F
:1032200030BD5A681C46002AECD01346E6E7C1625E
:10323000ECE7C1E90133C1620163E9E7D1E9013299
:1032400023B19A608A681AB153607047C262F9E785
:1032500003637047F8B5877804468FB3C5680146A5
:103260000027284605F10C06FFF7E8FF27703046D7
:10327000FFF790FFAB68002B48D03046FFF770FF98
:103280000446002842D0284600F0C4FD3A460646CF
:10329000394600F057FE304600F000FE6A6A816849
:1032A000064604F10C0006F04BFCF9232370A770CE
:1032B000F368E37021462846BDE8F840FFF799BF60
:1032C0008568AB68002BF5D05B78832BF2D128465C
:1032D00000F0A0FD3A460646394600F033FE30467F
:1032E00000F0DCFD06466A6A806804F10C0106F015
:1032F00027FCF3680BB1E2781A7000232370214693
:1033000005F10C00BDE8F840FFF744BFF8BD000030
:103310002DE9F84F8846074600B131B96FF0030137
:103320000020FFF7B1FB002477E0CE1C26F0030657
:103330000C36B0FA80F104D0B6FA86F30B441F2B9A
:10334000ECDD06FB07FAF2B194683CB1A30702D1A9
:10335000D368332B05D86FF00801E1E7D368002B61
:10336000F9D1D2E90453D2F800903DB115F0030B26
:1033700001D19A4554D96FF00901D1E7002BFAD158
:103380001CB19B460CE091461546274BD3F8A00094
:10339000D8B1FFF7E5FE0446A0B14FF0010B35BBF5
:1033A000214B0022D86F5146FFF762FE0546C0B997
:1033B000BBF1000F06D01C4BD3F8A000214658B13A
:1033C000FFF7E8FE6FF00401AAE7D3F880000122BE
:1033D0003421FFF74DFEDEE7D3F88000FFF77CFED7
:1033E000F0E75246002106F0B1FC4BF0020BFA2345
:1033F00023700023C4E90983C4E90B33A360324678
:103400002B4684F802B0C4F80490394604F10C004D
:10341000FFF785FE044B054A1A672046BDE8F88F82
:10342000002CE4D1B1E700BF1403002055320000A6
:103430002DE9F0410C4617469846054618B1037829
:10344000FA2B00D141B928466FF00301FFF71CFBAE
:103450006FF00300BDE8F0818368C3B15B78832B14
:1034600015D100F0D7FC01220646002100F06AFDCC
:10347000304600F013FD06466A6A8068214606F071
:103480005FFBF0680028E5D007700020E2E705F157
:103490000C00FFF765FE064670B121466A6A0C30E3
:1034A00006F04EFB0024F9233370B470F7703146F8
:1034B0002846FFF79EFEE8E7B8F1000F10D041461E
:1034C000932000F051FE40B1074B2846596900F0A7
:1034D0008FFCEFF30983C3E902476FF00100B9E7FE
:1034E0006FF00200B6E700BF1403002010B500F132
:1034F000280353E8002F12B9BFF32F8F04E0511EA9
:1035000043E8001404B1F4E70AB9002010BDC06A12
:1035100001230028F9D0821CD2E84F1FC2E8443FA3
:1035200004B1F9E711F0FF0FF0D08068F1E7000077
:103530002DE9F0410F4615469846044618B1037828
:10354000FA2B00D141B920466FF00301FFF79CFA36
:103550006FF00300BDE8F081FFF7C8FF06460028C2
:103560003AD001462046FFF769FE626A06F10C0177
:10357000384606F0E5FA0DB1F3782B70002504F11A
:103580000C07357031463846FFF704FEA3680BB9C7
:103590000020DFE73846FFF7E3FD06460028F7D0B6
:1035A000204600F037FC29460746012200F0CAFCFD
:1035B000384600F073FC626A8168074606F10C0029
:1035C00006F0BEFAF9233370B570FB68F37031462C
:1035D0002046FFF70EFEDBE7B8F1000F10D04146A2
:1035E000832000F0C1FD40B1074B2046596900F02F
:1035F000FFFBEFF30983C3E902756FF00100A9E750
:103600006FF00200A6E700BF1403002010B50446C7
:10361000EFF3058333B100206FF00501FFF734FAB3
:10362000002010BDFFF7DAFD0028F4D1DFF808C054
:10363000204600DFF5E700BF113300002DE9F0411F
:1036400006460F4690461C46EFF305834BB196B9EC
:1036500030466FF00301FFF717FA6FF00300BDE883
:10366000F081FFF7BBFD0028F1D1DFF84CC03046F8
:10367000234600DFF3E73378FA2BE9D1002FE7D0B8
:10368000002CE5D106F10C00FFF76AFD054680B17C
:10369000726A39460C3006F053FAF9232846C5E918
:1036A00001762B70AC7085F8038000F0A7FA2046F5
:1036B000D5E76FF00200D2E731340000F8B50446D8
:1036C0000F4616461D46EFF3058343B18CB92046DD
:1036D0006FF00301FFF7D8F96FF00300F8BDFFF7B3
:1036E0007DFD0028F2D1DFF848C020462B4600DFE0
:1036F000F4E72378FA2BEAD1002FE8D0002DE6D1A9
:103700002046FFF7F3FE054670B100F10C01626A36
:10371000384606F015FA0EB1EB7833702846EC60A7
:1037200000F06CFA0020D9E76FF00200D6E700BF86
:1037300031350000EFF310832BB9EFF3118000381F
:1037400018BF0120704701207047000070B5A8B372
:103750008468D0E900566CB114F0030302D1C2684A
:103760001B2A1AD86FF008010020FFF787F9002400
:10377000204670BDC368002BF4D1124BD3F89400DF
:1037800030B9D3F8800001221C21FFF771FC01E061
:10379000FFF7E6FC044660B10123F522A370002385
:1037A000C4E90233C4E904332270E670656023760D
:1037B000DEE76FF00401FFF761F9D9E70546064639
:1037C000DBE700BF14030020284B70B55D69044699
:1037D0000E4635B96FF00701FFF750F94FF0FF3093
:1037E00070BD10B10378F52B07D020466FF00301B0
:1037F000FFF744F96FF00300F2E7037E53B9EA6A7A
:10380000C560C0E9043202B11061EC620123237685
:103810000020E5E7C278D1070DD5C168A9420AD1D9
:10382000FF2B06D16FF00F01FFF728F96FF00200B0
:10383000D6E70133EBE7002EF8D093070AD5E0680E
:1038400095F9203090F920209A4203DA80F8203050
:1038500000F0F2FA3146532000F086FC18B12946F8
:10386000204600F0C5FA6FF00100B9E7140300200C
:1038700038B52E4B5A69044632B96FF00701FFF78D
:10388000FDF84FF0FF3038BD10B10378F52B07D0AD
:1038900020466FF00301FFF7F1F86FF00300F2E745
:1038A000037E33B96FF00E01FFF7E8F86FF0020006
:1038B000E9E7C168914202D06FF00D01F4E7013BE6
:1038C000DBB2037623BB43690BB10169196121693E
:1038D00001B34B61E3789B0705D592F92110D36AB8
:1038E000D3B982F82010A3687BB1204600F092FA89
:1038F00000220546114600F025FBEB6A63610023B8
:1039000023610123E560EC622376002000F0EEFAEB
:103910000020B8E7D362DDE7986820B190F9200075
:103920008142B8BF01465B69DAE700BF140300209B
:1039300070B5044610B10378F52B07D020466FF020
:103940000301FFF79BF86FF0030070BD037ED3B156
:103950006369C0680BB122691A6122691AB35361A5
:10396000E3789B070BD590F92130C26AEAB990F948
:1039700020209A4203D080F8203000F05DFAA06841
:10398000E0B900F0B3FAA078002610F0010026702C
:10399000DBD0124BD3F894502146C5B12846FFF72F
:1039A000F9FB3046D1E7C362DAE7916821B191F9BA
:1039B00020108B42B8BF0B465269D7E7204600F073
:1039C00029FA00226FF0020100F0BCFAD7E7D3F821
:1039D0008000FFF781FB2846B7E700BF14030020F3
:1039E0002DE9F0410446002601270CB9BDE8F0811D
:1039F000E378D4F814801B0710D5A36826766BB142
:103A0000204600F007FA00220546114600F09AFA17
:103A1000EB6AE560C4E90463EC6227764446E4E7B8
:103A200008B50246EFF3058333B100206FF00501BE
:103A3000FFF724F8002008BDFFF77CFE0028F4D132
:103A4000DFF808C0104600DFF5E700BF4D37000083
:103A500008B50246EFF305833BB110466FF0050150
:103A6000FFF70CF86FF0050008BDFFF763FE0028B4
:103A7000F3D1DFF808C0104600DFF5E7C9370000D2
:103A800008B50246EFF305833BB110466FF0050120
:103A9000FEF7F4FF6FF0050008BDFFF74BFE0028AE
:103AA000F3D1DFF808C0104600DFF5E771380000F9
:103AB00008B50246EFF305833BB110466FF00501F0
:103AC000FEF7DCFF6FF0050008BDFFF733FE0028AE
:103AD000F3D1DFF808C0104600DFF5E73139000008
:103AE00010B5D0E85F3F5A1C914200D80022C0E8D0
:103AF000542F04B1F5E798B210BD000038B51A4C48
:103B0000FFF742F8E3680133E360236D03B19847A0
:103B100000F0ACF9002000F0E9F9236C1BB3A26BB4
:103B2000A1698A4202D0A163E3631CE0E36BB3B9ED
:103B3000237A022B17D1656AADB195F9201092F95D
:103B4000203099420FD1284600F06DF9A06B00F0AB
:103B500085F9284600F0C0F9236CA563E4E7013B32
:103B6000E363002BE4D038BD1403002070B5224C71
:103B700004F1560504F15A06B4F85410D5E85F3F35
:103B800013B9BFF32F8F04E05A1EC5E8502F00B1C0
:103B9000F4E79BB25BB33046FFF7A2FFE36D53F847
:103BA000200020B30378F13B082BE5D801A252F89E
:103BB00023F000BFD93B0000793B0000DF3B000051
:103BC000793B0000793B0000E33B0000E73B00004D
:103BD000793B0000EB3B0000236E9847CCE7636E17
:103BE000FBE7A36EF9E7E36EF7E7236FF5E7BDE8C0
:103BF0007040002000F07AB91403002070B5164C14
:103C00000546B4F8541004F15602D2E85F3F9942D9
:103C100002D8BFF32F8F04E0581CC2E8560F06B13C
:103C2000F3E79BB2994205D829460220BDE87040CF
:103C3000FEF7DABE04F15800FFF752FFE36D43F8D8
:103C40002050637A23B9054B4FF080525A6070BD03
:103C50000123A372FBE700BF1403002000ED00E086
:103C6000EFF310832BB9EFF31180003818BF012058
:103C7000704701207047000010B50A4A90F92010E3
:103C800001234370536A1C321BB193F920408C42CC
:103C900005DCC0E90232906003B1D86010BD1A465D
:103CA0009B68F1E714030020014B5869704700BF7F
:103CB0001403002008B5FEF7EDFEDFF810C000DFAA
:103CC0004FF0FF310020FEF7D3FEFEE7D1410000A8
:103CD000930710B502F0010422D400F1280384B147
:103CE00053E8000F00EA01028A4203D0BFF32F8F8E
:103CF000002005E020EA010243E8002404B1EFE7D8
:103D000010BD53E8000F084203D1BFF32F8F0020EE
:103D100005E020EA010243E8002404B1F1E7EFE7FF
:103D2000806A01EA00031CB1994218BF0020E7E74E
:103D3000002B08BF0020E3E710B5084A136B0021F1
:103D40003BB94FF0FF34C0E90431C46121B10861CF
:103D500010BD19461B69F3E71063F9E7140300204F
:103D600010B5C469621CD0E904310AD103B15961AC
:103D700042691AB113610023436101E0064A1363EB
:103D800010BD1BB1DA6959612244DA614269002A27
:103D9000F0D1014AD362F3E71403002010B50023E9
:103DA000038083789A07044608D513F0100F016B3F
:103DB0000E4B0FD0D3F88400FFF7ECF9A378DB07A4
:103DC00012D50A4BD3F88800214638B1BDE810401F
:103DD000FFF7E0B9586FFFF77FF9EFE7BDE8104054
:103DE000D3F88000FFF778B910BD00BF140300209E
:103DF00010B591F9202083681BB193F920409442BB
:103E000005DAC1E90230816003B1D96010BD1846FE
:103E10009B68F1E783689A68826002B1D0600022F3
:103E2000DA6018467047C2682AB18368936003B1AC
:103E3000DA600023C360704710B50146044664B1E0
:103E40002378F12B07D00846FFF7EDFF2046BDE8A9
:103E50001040FFF7CDBFE468F1E710BD0123014634
:103E600043700148FFF7C4BF3003002038B50A4D46
:103E7000EC6A84B1E369013BE36163B92046FFF773
:103E8000D2FFFFF7EBFF246924B1E369002BF5D0E3
:103E900000236361EC6238BD1403002090F82230E7
:103EA000826B13F0100F0CBF60202020104470476D
:103EB000074B596951B10B6B8A6B934203D21A6855
:103EC000044B9A4202D00120FEF78EBD704700BF1E
:103ED00014030020A52E5AE208B502234370024BBA
:103EE0009861FFF7E5FF08BD1403002010B5144BDF
:103EF00004461A7A5969A0B9022A1FD15C6AECB14A
:103F000094F9202091F920309A4217DD2046FFF7DE
:103F10008AFF0846FFF7B0FE2046BDE81040FFF7D5
:103F2000DBBF022A05D190F9202091F920309A4276
:103F3000EFDC2046BDE81040FFF790BF10BD00BF8A
:103F40001403002038B504461546FFF7A7FF0160AB
:103F50002046FFF705FF1DB1BDE83840FFF7C6BF9B
:103F6000BDE83840FFF77ABF10B54378332B0446DD
:103F70000CD1416A90F82320FFF7AAFE014628B130
:103F800020460022BDE81040FFF7DCBF10BD000056
:103F90002DE9F04F85B08146029128B96FF00301F9
:103FA000FEF766FD0024BCE0002A45D0966846B1C5
:103FB000B40702D1D368432B06D86FF00801002064
:103FC000EEE7D368002BF8D1D2E9044597693CB1FC
:103FD000600702D1002D40F0B2806FF00A01EEE7D9
:103FE0002FB17B1E372B03D96FF00B01E7E71827A2
:103FF000002D40F0A880D2E900A301934EBB554BA1
:10400000D3F88800F0B1FFF7ABF8064600283AD0A5
:104010004FF00108002C44D1DFF838B1E5B94E4A21
:10402000DBF88400556DB8B1FFF79AF80246E0B1AD
:1040300048F01008344623E09246144618271546E7
:104040000192DCE7D3F8800001224421FFF710F849
:10405000DBE74FF00008DDE72246DBF87400294675
:10406000FFF706F802460028E4D1B8F1000F16D099
:10407000DBF8882052B110463146FFF78BF800225A
:1040800048F002087CB96FF0040198E7DBF8800083
:1040900003923146FFF720F8039A1446F0E74246B0
:1040A000EEE72246344640F2F1132380019BE37091
:1040B0000023C4E90233C4E90433C4E90633C4E984
:1040C0000933C4E90B32A5F140031344C4E90E39A6
:1040D0007FB2224B84F80280FD21C4F804A084F84A
:1040E000207084F821706184656313601A4B1B682B
:1040F0005B071AD4A36B00201A4603F1340143F87E
:10410000040B9942FBD1164BC2E90D394FF0807375
:10411000D363029B13620F4B124A1A662046FFF7C5
:10412000E5FE204605B0BDE8F08FAD08113D4FF02B
:10413000CC33002DDED042F8043F013DF9E7002FDB
:104140007FF44FAF182769077FF447AF472D3FF63D
:1041500052AF42E7140300201CF10000A52E5AE2E2
:10416000B53C0000693F000038B5174A137A022BAE
:104170000446154626D1506A58B150694B1C44700C
:1041800008D1FFF7D9FD1148FFF744FEFFF7A4FE61
:10419000012038BDD36A002213B1DC69A1420BD2E1
:1041A000C0E90432C1615AB11061002BEBD0DA6969
:1041B0005861511AD961E6E71A46091B1B69EBE7FA
:1041C000E862F2E70020E4E7140300203003002057
:1041D00038B5164D2B7A022B27D16B6A2BB36C693D
:1041E000E06AFFF7FDFBA06918B100221146FFF756
:1041F000A9FEEFF309830E48A363FFF70BFEFFF759
:104200006BFE00236B61E378DB0701D5A36923B163
:104210002046BDE83840FFF7C1BD04226270E3606C
:104220006B6BA36003B1DC606C6338BD14030020CA
:104230003003002038B50B4C0B48A26D0B4D00210C
:10424000FFF7A6FE636EA8624BB1E26D084800213D
:10425000FFF79EFEA864003818BF012038BD01207A
:10426000FCE700BF1CF10000E1290000140300205E
:104270005943000010B50446EFF3058333B1002025
:104280006FF00501FEF7F4FB002010BDFFF7E8FC1E
:104290000028F4D1DFF808C0204600DFF5E700BFB2
:1042A000913F000008B5EFF3058313B1054B586942
:1042B00008BDFFF7D5FC0028F8D1DFF80CC000DFFF
:1042C000F6E700BF14030020A93C00000C4A536C21
:1042D00030B5002413B11D698D420AD9C0E90243EB
:1042E00001611BB11D699860691A19612CB1E06008
:1042F00030BD1C46491BDB68ECE75064F8E700BFA3
:104300001403002070B5134D6C6C04B32369013B9A
:10431000236101262369D3B9E3680BB1A2689A60CF
:104320006B640023E86C1A4604F11801FFF786F964
:1043300018B121460320FEF757FBE378012B07D184
:1043400061692046FFF7C2FF6C6C002CE2D170BDA2
:104350006670F9E7140300200B4B0C4C07B51A6E7E
:10436000586E0821FFF752F9094AE0642265E06CB3
:104370004FF0FF3300226946FFF7A0F90028F6D17D
:10438000DDE900309847F2E71CF10000140300203B
:104390000543000008B5FEF773FC20B1024903484D
:1043A000C122FDF755FD08BDE8F100007DF20000D7
:1043B0000749084A084B9B1A03DD043BC858D050F4
:1043C000FBDC064880470648804706480047000057
:1043D00030F7000000020020A80D00203D4400003E
:1043E000114C000041010000FEE7FEE7FEE7FEE79A
:1043F000FEE7FEE7FEE7FEE7FEE7FEE7024B1030D2
:1044000043F82010704700BF00000020024B10301E
:1044100053F82000704700BF00000020054B1B68C8
:10442000082B01BF044B1868B0FA80F0400918BF90
:1044300000207047300100103401001008B5FFF76C
:10444000EDFF40B14FF080430022C3F80C21C3F8C8
:104450001021C3F83825FFF7E1FF002846D04FF0C0
:104460008052714BD2F80414C3F82015D2F8081406
:10447000C3F82415D2F80C14C3F82815D2F8101478
:10448000C3F82C15D2F81414C3F83015D2F8181448
:10449000C3F83415D2F81C14C3F84015D2F8201410
:1044A000C3F84415D2F82414C3F84815D2F82814D8
:1044B000C3F84C15D2F82C14C3F85015D2F83014A8
:1044C000C3F85415D2F83414C3F86015D2F8381470
:1044D000C3F86415D2F83C14C3F86815D2F8401438
:1044E000C3F86C15D2F84424C3F87025FFF796FF83
:1044F00010B14E4B4E4A1A60FFF790FF18B14D4B6A
:10450000FB22C3F81825FFF789FF48B14A494B4BF6
:104510000A681B6822F00F0203F00F0313430B60BD
:10452000FFF77CFF18B1464B4FF400721A60FFF79B
:1045300075FF48B14FF08043D3F80024D20744BF41
:104540006FF00102C3F800243E4AD2F8883043F4E9
:104550007003C2F88830BFF34F8FBFF36F8F4FF0F7
:104560001023D3F80022002A03DBD3F80432002BF7
:104570002FDA354B0122C3F80425D3F80024002A92
:10458000FBD04FF010221221C2F80012D3F8002401
:10459000002AFBD04FF010231222C3F804222A4B2A
:1045A0001A46D3F800140029FBD00021C3F80415E3
:1045B000D2F80034002BFBD0BFF34F8F2149234B9F
:1045C000CA6802F4E0621343CB60BFF34F8F00BFB1
:1045D000FDE71F4B1F4A1A604FF080430122002164
:1045E000C3F81825C3F804119A60D3F80421002AEF
:1045F000FBD01949CA6842F08072CA60D3F85C25C2
:1046000042F48032C3F85C25D3F85C2542F0030203
:10461000C3F85C254FF0A04340F20132C3F84827AD
:104620000E4B00221A6108BD00C000408C560040AD
:104630004881030000F00040E40E004058020010E2
:104640004096024000ED00E000E001400400FA0561
:10465000B80300200090D003F0ED00E0000004E07B
:104660000D4B1A6882B042B100221A601B680B4AD7
:104670000193019B136801331360094B1A68094BBE
:104680000AB91A7832B11A780AB100221A7002B047
:10469000FCF79EBE02B07047041101405C3A002056
:1046A00044110140583A0020F0B5234D2A7885B0D6
:1046B00062B1224B00221A601B680193019B204BC0
:1046C0004FF40032C3F8082305B0F0BD4FF080432B
:1046D000C3F8042101229A60D3F80421002AFBD0F8
:1046E000174C184B184900260127666011201F60DF
:1046F000FFF784FE114BC4F808651E601B68039326
:10470000039B124B1E601B680293029B4FF0021327
:10471000C4F848330223C4F804330D4B4FF400327D
:104720004021C4F8082383F81113C3F880211A60CC
:1047300027602F70C8E700BF593A0020441101409C
:1047400000100140041001406146000004110140C6
:1047500000E100E0094B01221A60094A4FF40033DE
:10476000C2F80833074AC2F88030BFF34F8FBFF357
:104770006F8F054B00221A70704700BF0410014074
:104780000010014000E100E0593A002073B50446F2
:104790000E461546FDF77EFC114B24F07F40D3F802
:1047A0000445A04204D0013424F07F44844202D165
:1047B000023020F07F4006F5A87643F82600D3F8B3
:1047C00004232A4006D107490A600A680192019A27
:1047D000C3F8045302B0BDE87040FDF771BC00BFE0
:1047E0000010014044110140024803780BB101F070
:1047F0003BB87047BC030020024B012200201A7016
:1048000001F040B8BC030020024B1878B0FA80F0E9
:1048100040097047BC030020134930B4D1E900259A
:10482000C0F1200405FA04F4A0F12001C2402243A3
:1048300025FA01F10A4302F00104002554EA0502B9
:1048400003460ED0094A115CC1F30012890703D553
:104850001AB930BC01F0FEBD1AB130BC184601F0E7
:1048600047BF30BC704700BF503B0020203B0020BA
:104870001F288BBF00F01F0303461C4A4FF0A042C5
:1048800003F5E07330B452F82330194AC3F30143FF
:10489000032BD2E90035C0F1200405FA04F4A0F19D
:1048A000200223FA00F343EA040325FA02F243EA62
:1048B000020303F001044FF000050CBF01210221A7
:1048C00054EA050310D00B4B01291B5C09D113F0EE
:1048D000400F09D0084B094A1B6852F8200030BC31
:1048E000184713F0200FF4E730BC70470003005066
:1048F000583B0020203B0020603B0020603A002015
:104900002DE9F3474C4D04462B5C0127A4F120060A
:10491000C4F1200107FA06F627FA01F1C3F30010EB
:1049200013F0010FA8460246444D46EA010607FA75
:1049300004F7A4F1200AC4F1200901D1002874D0A1
:1049400018F804309B07214601D5002A53D00020D7
:10495000ADF805009DF8063023F003038DF806300E
:1049600003238DF8043018F80430C3F3810C634638
:10497000012B01D0032B2CD18DF805C062B3304A36
:1049800001A9204601F0CCFD2E4AD2E90032E340D5
:1049900002FA09F943EA090322FA0AFA43EA0A0386
:1049A00003F00100002150EA010309D018F8043097
:1049B0005A0601D49B0603D50121204601F02CFEA6
:1049C000D5E9002317431E43C5E9007602B0BDE8D0
:1049D000F0878DF80500D1E71F2C9DF8053086BFC4
:1049E000194A04F01F014FF0A04201F5E0719B004D
:1049F00042F82130E4E71F2C88BF134BADF80420A8
:104A000094BF4FF0A04304F01F02D3F804358DF893
:104A1000060098BF2246D34003F0010301A92046B7
:104A20008DF8053001F0A6FCCAE7D5E9002322EA9B
:104A3000070723EA0606C7E7203B0020503B00207B
:104A400071480000583B0020000300504B1C10B57B
:104A50000446017014D0C9B22F2904D909490A4863
:104A60005422FDF7F5F909490620FFF7C7FC01F0CC
:104A70003DFC074994F900208B5C43F001038B5403
:104A800010BD00BF94F20000D9F200006967000079
:104A9000203B002008B590F90000421C04D11049C9
:104AA00010486722FDF7D4F90F4B1B5C9B070DD50F
:104AB0001F288ABF0D4B4FF0A04300F01F00D3F812
:104AC000043523FA00F000F0010008BD1F288ABF5A
:104AD000064B4FF0A04300F01F00D3F81035F0E76D
:104AE00094F20000A7E40000203B002000030050E7
:104AF00038B5044690F90000431C0D4604D10A491C
:104B00000A48B422FDF7A4F9C0B2FFF785FE94F974
:104B10000000074B1A5C65F383021A54BDE8384065
:104B2000C0B2FFF7EDBE00BF94F20000A7E40000A2
:104B3000203B002038B5044690F90000431C0D4688
:104B400004D10A490A48BF22FDF782F9C0B2FFF733
:104B500063FE94F90000074B1A5C65F341021A5496
:104B6000BDE83840C0B2FFF7CBBE00BF94F20000F2
:104B7000A7E40000203B0020234B70B50022044630
:104B8000184693F90060751C13D093F90150B5F1E4
:104B9000FF3F0ED0A64220D18D421ED100EBC202B3
:104BA0001A4B506803F8104003EB4003461C597041
:104BB00017D1164B93F9000084421A4603D193F99A
:104BC00001308B420CD092F902309C420AD192F90A
:104BD00003508D4206D1012003E001320833D0E7B3
:104BE000002070BD55782840FF280BD0D0780340B6
:104BF000FF2BF0D1012302F8134002EB43021846C9
:104C00005170EEE70023F6E78CF20000BD030020B0
:104C100010B5074A074811460023013350F8044BEA
:104C200041F8044B402BF8D1034B9A6010BD00BFF4
:104C3000000000200000000000ED00E070470023AD
:104C4000435082B043580193019B02B0704700006B
:104C5000074A2823584313180021597413581A6A15
:104C600022B1586A800701D5D8691047704700BF44
:104C7000CC3B0020074A28235843131800215973BE
:104C800013581A6A2AB1596AC90702D5D86901218D
:104C900010477047CC3B0020084A2823584313187C
:104CA0000021D973597313581A6B2AB1596B4907EC
:104CB00002D5042199631047704700BFCC3B002008
:104CC00008B5114B024653F82000104BC0F80833CA
:104CD0004FF4A671FFF7B3FF4FF48871FFF7AFFFF2
:104CE000D0F8003223F02003C0F80032084B28210E
:104CF00001FB023201231374002382F824301023B5
:104D0000C0F8043308BD00BF5CF3000010000800C9
:104D1000CC3B0020184B2DE9F04153F82040174FB1
:104D2000DFF85C80C4F80883282303FB00F57E19B4
:104D30000435706900F0D1FD2023B3614FF4A671F2
:104D40002046FFF77CFF4FF48871FFF778FFD4F817
:104D5000003243F02003C4F8003200233D44012216
:104D6000B374C4F834553374C4F8382586F8243045
:104D7000C4F80483BDE8F0815CF30000CC3B002064
:104D80001000080008B5174B1A7832B100201870CF
:104D9000154BDB7BF3B1FFF77FFF144B1A781AB189
:104DA00000201870FFF754FF114B1A7842B100220F
:104DB0001A700D4B93F8373001207BB1FFF76CFF71
:104DC0000C4B1A786AB100221A70BDE80840012025
:104DD000FFF73EBF1846FFF74DFFDEE7FFF74AFF3C
:104DE000EEE708BD1E3C0020CC3B00201C3C002010
:104DF0001F3C00201D3C00204D4B2DE9F74F044681
:104E000053F82000D0F810219846CAB14FF48871A9
:104E1000FFF715FF2827474907FB04F28B188B463D
:104E20001D7C002D46D00020187498738B58DA6BC7
:104E300032B1196CC80503D54FF48071596490479D
:104E400058F82450D5F84C31FBB1D5F81031E3B9FE
:104E50004FF4A6712846FFF7F2FE364A2823634333
:104E6000191D1344987C80F001000144186A0A441B
:104E7000C5F83425411C4FF00102C5F8382504D08F
:104E8000996903294ED901F03BFBD5F8203173B164
:104E90004FF490712846FFF7D2FE274B0122002CD9
:104EA00043D126490A704FF48012C3F8002103B0A1
:104EB000BDE8F08F9F7CD0F83CA587F00101997484
:104EC000BAF1000FBCD0174402F118090437D944D5
:104ED0005F441E46706901A900F021FD68B117F812
:104EE000013B037001A9706900F043FD0135012108
:104EF0004846FCF7E5FFAA45ECD1282303FB04BB99
:104F00009BF81130002B9BD101230B4A8BF81130F9
:104F10004FF4801124B90A480370C2F800118FE7DA
:104F20000848F9E783F82420AFE70749BAE700BF4C
:104F30005CF30000CC3B002000E100E01E3C0020C0
:104F40001C3C00201D3C00201F3C00200120FFF7DE
:104F500053BF0020FFF750BF2DE9F341044628B9A5
:104F60005749584840F24E22FCF772FF41684D1CE9
:104F700010D01F2987BF544A01F01F030B464FF082
:104F8000A0420120984003F5E073C2F80805032011
:104F900042F82300A268501C0CD01F2A8BBF02F0DD
:104FA0001F03134648484FF0A04003F5E073002567
:104FB00040F823502368454E56F82300C0F80C15DE
:104FC000C0F81425227D012A15D1E268511C0CD0AD
:104FD0001F2A8BBF02F01F0111463B4D4FF0A04529
:104FE00001F5E071002745F821704FF0FF31C0F85E
:104FF0000815C0F81025364D2169282707FB0353F3
:105000001A6A91424ED0187F01F042FD20B140F261
:105010007B222B492F48A7E7236807FB03531B6A12
:10502000013302D0206901F015FA2069431C33D006
:10503000294901F09FF9082806D1206901F00AFAF0
:105040002549206901F096F910B140F29222E0E77B
:105050002368206956F82310282707FB035201F51F
:10506000887192F81C80019101F03CFA0199024686
:10507000404601F0D7FC10B14FF42672C9E723680F
:1050800007FB0353187F01F0EDFC10B140F29B22A7
:10509000BFE7206901F014FA2368282202FB0355B8
:1050A00023692B622368217D56F82320637D0B43FF
:1050B000C2F86C35A369C2F8243502B0BDE8F081AE
:1050C000F8F200003FF30000000300505CF3000022
:1050D000CC3B002043F3000056F3000070B50446BB
:1050E00028B91A491A484FF43F72FCF7B1FE056817
:1050F000184E28226A43B118B258824202D192F85F
:105100002C3083B12046FFF727FF28236B43284626
:10511000F450002384F82C3094F82D304BB1BDE8C6
:105120007040FFF7CDBD92F82D200B7C4AB93BB102
:105130002846FFF7EFFD084B53F8253001221A608F
:1051400070BD002BFCD12846E9E700BFF8F2000053
:105150003FF30000CC3B00205CF300002DE9F84F4A
:1051600088461746044628B95749584840F2433202
:10517000FCF76EFE564B574D1A78002A5ED000227F
:105180001A7001F0EDF808B901F0B0F8524E534929
:10519000DFF880911420FFF731F9E02386F814330B
:1051A0004FF48013C6F880314D493360212201232A
:1051B000484600F07FFB0023C5F8149049482B6057
:1051C00001F002FC814620B14FF459723E49464835
:1051D000CEE7464B4649DFF840B14FF0FF3AC5F8FD
:1051E00020A00220C3F808A3FFF708F9042386F8DB
:1051F00002934049C6F8803121223360584601238A
:1052000000F058FBC5F828903B48C5F83CB001F0C9
:10521000DBFB814610B140F27A32D7E7374BC5F855
:1052200048A03749C3F808A32820FFF7E7F84FF450
:10523000807386F82893C6F88431736039464046F7
:10524000FFF79AFC28234343EA182060966801364A
:10525000012E96601ED12B4A52F820000822C0F879
:1052600000250C334FF0FF32C0F80C251D44C0F868
:1052700014254FF08052C0F824254FF49071C0F8E7
:105280004455C0F84865FFF7DAFC8660D0F81C3159
:10529000002BFBD01C4BA3614FF0FF33C4E9033359
:1052A0000023A3822362194B9C4208BF184A4FF087
:1052B0000103C4E9018708BF136084F82C3020463D
:1052C000BDE8F84FFFF70ABFF8F200003FF3000017
:1052D000C1030020CC3B002000E100E0854D000030
:1052E000643B0020E83B002043F300000020004026
:1052F000534F0000983B0020103C002000800240EB
:105300004D4F00005CF3000000502700203C0020BF
:105310008C3C0020883B0020BC3B002008B528B90D
:10532000104911484FF47872FCF792FD0F4B026858
:10533000282101FB02318B686BB1013B8B6053B9B3
:105340000B4951F82210C1F80035012122B9094B4F
:105350001A601A68196008BD074A13601368116063
:10536000F9E700BFF8F200003FF30000CC3B00205B
:105370005CF30000FC2F0040FC8F024008B528B908
:105380003149324840F20E42FCF762FDB1F5166F2A
:1053900035DBB1F5965F35DBB1F5165F35DBB1F581
:1053A000615F34DBB1F5964F33DBB1F5E14F32DBB2
:1053B000B1F5164F31DBB1F5614F30DBB1F5963FFA
:1053C00030DBB1F5E13F30DBB1F5613F2FDB204B46
:1053D00099422FDDB1F5E12F2FDBB1F5612F2FDBE6
:1053E0001C4B9942D4BF4FF070614FF080518369DC
:1053F0008B421EBF0123816180F82C3008BD4FF421
:105400009E21F4E74FF41D21F1E71349EFE713491B
:10541000EDE71349EBE71349E9E71349E7E74FF4F1
:105420001D01E4E74FF46B01E1E71049DFE74FF0BE
:10543000EB71DCE74FF06C71D9E74FF08061D6E794
:105440004FF0E861D3E700BFF8F200003FF300003F
:105450008FD003003F420F0000B013000050270020
:1054600000F03A0000A04E0000C0750000903A0124
:1054700008B528B90F49104840F27442FCF7E8FC1F
:10548000B3F1FF3F03D0012908BF4FF0FF33C360E2
:10549000531C03D0022908BF4FF0FF32003918BF58
:1054A00001210123017580F82C300261BDE808401C
:1054B000FFF714BEF8F200003FF3000008B528B96A
:1054C000044905484FF49C62FCF7C2FCC0E907217F
:1054D00008BD00BFF8F200003FF3000010B528B986
:1054E0000B490C4840F2F542FCF7B2FC012908BF19
:1054F0000124416A18BF02242AB121434162BDE858
:105500001040FFF7EBBD21EA0401416210BD00BF6E
:10551000F8F200003FF30000F7B528B91A491B481C
:1055200040F21252FCF794FC0022056880F82D200E
:10553000174CFFF7D3FD282202FB054256697289FA
:10554000F38892B29BB29A42F9D001A9304600F09A
:1055500020FA01A90746304600F046FA28235D43A9
:1055600005F1180001212044FCF78FFC631993F822
:1055700024202AB10022186A83F8242000F0C0FFFA
:10558000387803B0F0BD00BFF8F200003FF3000030
:10559000CC3B002038B50C4628B91549154840F2D7
:1055A0004352FCF755FC0568FFF798FD124B53F882
:1055B0002500D0F81C31002BFBD04FF48E71FFF783
:1055C0003EFB0E4A28236B43D1180C3313440122AF
:1055D000C0F844350C73C0F848254FF49071FFF7BC
:1055E0002EFB4FF48073C0F80433826038BD00BFD7
:1055F000F8F200003FF300005CF30000CC3B002019
:1056000010B528B90B490C4840F26B52FCF720FC4E
:10561000002280F82D200468FFF760FD074B282248
:1056200002FB043463695889DB88C01A18BF012063
:1056300010BD00BFF8F200003FF30000CC3B00209B
:1056400008B528B90C490D484FF4B162FCF700FCCD
:1056500002680B49282303FB02135B7BDBB243B9CF
:10566000084B53F82230D3F81C01003818BF012032
:1056700008BD0020FCE700BFF8F200003FF3000087
:10568000CC3B00205CF300000E4B1A6942F0100284
:105690001A61F1EE102A22F09F02E1EE102AF1EEDB
:1056A000102A094A4021C2F884114FF0804201219A
:1056B000D16740BF20BF5A68044B134003B920BFD5
:1056C000704700BF00ED00E000E100E03FF0439EC6
:1056D0000748027808B512B1064B01221A60FFF79D
:1056E000D3FF037813B1044B01221A6008BD00BF39
:1056F000903C00200490004000900040004870471B
:1057000064F3000073B5214E214A3178214C51B128
:105710000023136013680093009B4FF48033C4F898
:10572000083302B070BD1C4B01251D604FF480335F
:10573000C4F80833D4F8043523F00303C4F804355F
:10574000D4F8103523F00F0343F00403C4F81035E8
:10575000D4F8083543F00303C4F80835C4F84015FD
:105760001160136801930D49019B0920FEF746FE65
:105770000B4B402283F809234FF40072C3F88021B9
:105780001A60084B25601D603570CAE7903C002008
:10579000409100400090004004900040B518000087
:1057A00000E100E044900040024B01221A60D3F86F
:1057B000000570474490004013B50446FCF76AFCAE
:1057C0000A4AC2F84045D2F8043313F4803308D1B2
:1057D00007490B600B680193019B4FF48033C2F8BB
:1057E000043302B0BDE81040FCF76ABC00900040F2
:1057F00040910040024B4FF40072C3F80021704703
:1058000000E100E0024B4FF48032C3F808237047F8
:1058100000900040044B002282B01A601B68019384
:10582000019B02B0704700BF409100400A4A01232B
:105830001360D360094B4FF48032C3F80823084B40
:105840004FF40072C3F88020BFF34F8FBFF36F8F08
:10585000044B00221A7070470490004000900040F2
:1058600000E100E0903C002072B6054A1378191E52
:1058700018BF01210133017013700020704700BF71
:10588000913C0020044B20B11A78013A1A70002094
:105890007047187062B6FAE7913C002010B50346D5
:1058A00053E8002FA2EB010043E8000494F0000F3E
:1058B000F6D110BD10B561B1B2FBF3F403FB1424B3
:1058C000A4B244B9C0E9001484608281C381204637
:1058D00010BD0E20FCE70920FAE782B050E8022F45
:1058E000C188B2EB324F4FF0000317BF92B241EACA
:1058F000014142EA014104E04268B2EB324F08BF85
:10590000012340E80212002AE8D18DF807309DF803
:105910000730002B0CBF1120002002B0704737B5B4
:1059200050E8013F9DB2C48925448489A54228BF1F
:105930002D1B0489A54202BFBFF32F8F002207E071
:10594000C5EA030540E80154002CE9D14FF00102FB
:105950008DF803200193019B9DF803200B6002F05A
:10596000FF0322B10B880068184403B030BD18460D
:10597000FBE70A884B889A4209D150E8012FC2EA16
:10598000024240E80123002BF7D10120704700209C
:10599000704737B550E8023F1FFAA3F5C488A54207
:1059A00002BFBFF32F8F00220DE0C48925448489F4
:1059B000A54228BF2D1BC3EA054540E80254002C30
:1059C000E8D14FF001028DF803200193019B9DF86F
:1059D00003200B6002F0FF0322B14B8800681844DB
:1059E00003B030BD1846FBE70A884B889A4209D1BC
:1059F00050E8022FC2EA224240E80223002BF7D1EE
:105A0000012070470020704770B5064D06460024FF
:105A100055F8043B0BB1304698470134042CF7D1BC
:105A200070BD00BFA03C00200B4A0C4B51881420D5
:105A300000FB0131CB6833B90420496810700122A2
:105A4000074800F0EABB07490523137002238B8047
:105A5000012209680023F3E7B83C0020D03C002075
:105A6000940D00200C3D002007B50023054900934C
:105A7000054A09680548082300F0A1FB03B05DF85A
:105A800004FB00BF0C3D002078F30000940D0020C3
:105A900007B5002301460093034A0448082300F099
:105AA0008EFB03B05DF804FB70F30000940D002042
:105AB00013B500230C4600930146084A0848042306
:105AC00000F07DFB38B90749142303FB04140123BC
:105AD000237402B010BD0E20FBE700BF6CF3000082
